{
  "contractName": "Driver",
  "abi": [
    {
      "constant": false,
      "inputs": [
        {
          "name": "_distaddr",
          "type": "address"
        },
        {
          "name": "_name",
          "type": "string"
        }
      ],
      "name": "addDistributor",
      "outputs": [],
      "payable": false,
      "stateMutability": "nonpayable",
      "type": "function"
    },
    {
      "constant": true,
      "inputs": [
        {
          "name": "",
          "type": "address"
        }
      ],
      "name": "product",
      "outputs": [
        {
          "name": "prodID",
          "type": "uint256"
        },
        {
          "name": "prodname",
          "type": "string"
        },
        {
          "name": "pricePerUnit",
          "type": "uint256"
        },
        {
          "name": "produceraddr",
          "type": "address"
        },
        {
          "name": "stock",
          "type": "uint256"
        }
      ],
      "payable": false,
      "stateMutability": "view",
      "type": "function"
    },
    {
      "constant": false,
      "inputs": [
        {
          "name": "_produceraddr",
          "type": "address"
        },
        {
          "name": "_name",
          "type": "string"
        }
      ],
      "name": "addProducer",
      "outputs": [],
      "payable": false,
      "stateMutability": "nonpayable",
      "type": "function"
    },
    {
      "constant": false,
      "inputs": [
        {
          "name": "_amount",
          "type": "uint256"
        }
      ],
      "name": "checkprice",
      "outputs": [
        {
          "name": "",
          "type": "uint256"
        }
      ],
      "payable": false,
      "stateMutability": "nonpayable",
      "type": "function"
    },
    {
      "constant": false,
      "inputs": [
        {
          "name": "no",
          "type": "uint256"
        },
        {
          "name": "hrs",
          "type": "uint256"
        }
      ],
      "name": "randomluminosity",
      "outputs": [
        {
          "name": "",
          "type": "uint256[]"
        }
      ],
      "payable": false,
      "stateMutability": "nonpayable",
      "type": "function"
    },
    {
      "constant": false,
      "inputs": [
        {
          "name": "_produceraddr",
          "type": "address"
        },
        {
          "name": "_trackingNo",
          "type": "uint256"
        }
      ],
      "name": "acceptOrderByProducer",
      "outputs": [
        {
          "name": "",
          "type": "uint256"
        }
      ],
      "payable": false,
      "stateMutability": "nonpayable",
      "type": "function"
    },
    {
      "constant": false,
      "inputs": [
        {
          "name": "_prodID",
          "type": "uint256"
        }
      ],
      "name": "addProduct",
      "outputs": [],
      "payable": false,
      "stateMutability": "nonpayable",
      "type": "function"
    },
    {
      "constant": false,
      "inputs": [
        {
          "name": "no",
          "type": "uint256"
        },
        {
          "name": "hrs",
          "type": "uint256"
        }
      ],
      "name": "randomtemperature",
      "outputs": [
        {
          "name": "",
          "type": "uint256[]"
        }
      ],
      "payable": false,
      "stateMutability": "nonpayable",
      "type": "function"
    },
    {
      "constant": false,
      "inputs": [
        {
          "name": "_produceraddr",
          "type": "address"
        },
        {
          "name": "_distaddr",
          "type": "address"
        },
        {
          "name": "_quantity",
          "type": "uint256"
        },
        {
          "name": "_prodID",
          "type": "uint256"
        }
      ],
      "name": "createOrderByDistributor",
      "outputs": [
        {
          "name": "",
          "type": "uint256"
        }
      ],
      "payable": false,
      "stateMutability": "nonpayable",
      "type": "function"
    },
    {
      "constant": true,
      "inputs": [
        {
          "name": "",
          "type": "uint256"
        }
      ],
      "name": "pro",
      "outputs": [
        {
          "name": "prodID",
          "type": "uint256"
        },
        {
          "name": "prodname",
          "type": "string"
        },
        {
          "name": "pricePerUnit",
          "type": "uint256"
        },
        {
          "name": "produceraddr",
          "type": "address"
        },
        {
          "name": "stock",
          "type": "uint256"
        }
      ],
      "payable": false,
      "stateMutability": "view",
      "type": "function"
    },
    {
      "constant": false,
      "inputs": [
        {
          "name": "_from",
          "type": "address"
        },
        {
          "name": "_to",
          "type": "address"
        },
        {
          "name": "_amount",
          "type": "uint256"
        }
      ],
      "name": "makePayment",
      "outputs": [
        {
          "name": "",
          "type": "bool"
        },
        {
          "name": "",
          "type": "uint256"
        }
      ],
      "payable": false,
      "stateMutability": "nonpayable",
      "type": "function"
    },
    {
      "constant": true,
      "inputs": [
        {
          "name": "",
          "type": "address"
        }
      ],
      "name": "distributor",
      "outputs": [
        {
          "name": "distaddr",
          "type": "address"
        },
        {
          "name": "distname",
          "type": "string"
        }
      ],
      "payable": false,
      "stateMutability": "view",
      "type": "function"
    },
    {
      "constant": false,
      "inputs": [
        {
          "name": "no",
          "type": "uint256"
        },
        {
          "name": "hrs",
          "type": "uint256"
        }
      ],
      "name": "randomaccelerometer",
      "outputs": [
        {
          "name": "",
          "type": "uint256[]"
        }
      ],
      "payable": false,
      "stateMutability": "nonpayable",
      "type": "function"
    },
    {
      "constant": true,
      "inputs": [
        {
          "name": "",
          "type": "uint256"
        }
      ],
      "name": "prostock",
      "outputs": [
        {
          "name": "produceraddr",
          "type": "address"
        },
        {
          "name": "producername",
          "type": "string"
        }
      ],
      "payable": false,
      "stateMutability": "view",
      "type": "function"
    },
    {
      "constant": true,
      "inputs": [
        {
          "name": "",
          "type": "address"
        }
      ],
      "name": "producer",
      "outputs": [
        {
          "name": "produceraddr",
          "type": "address"
        },
        {
          "name": "producername",
          "type": "string"
        }
      ],
      "payable": false,
      "stateMutability": "view",
      "type": "function"
    },
    {
      "constant": true,
      "inputs": [
        {
          "name": "",
          "type": "uint256"
        }
      ],
      "name": "trackingorder",
      "outputs": [
        {
          "name": "flag",
          "type": "bool"
        },
        {
          "name": "trackingNo",
          "type": "uint256"
        },
        {
          "name": "prodname",
          "type": "string"
        },
        {
          "name": "prodID",
          "type": "uint256"
        },
        {
          "name": "distaddr",
          "type": "address"
        },
        {
          "name": "produceraddr",
          "type": "address"
        },
        {
          "name": "quantity",
          "type": "uint256"
        },
        {
          "name": "amount",
          "type": "uint256"
        }
      ],
      "payable": false,
      "stateMutability": "view",
      "type": "function"
    },
    {
      "constant": false,
      "inputs": [
        {
          "name": "_trackingNo",
          "type": "uint256"
        },
        {
          "name": "_distaddr",
          "type": "address"
        },
        {
          "name": "_produceraddr",
          "type": "address"
        },
        {
          "name": "_amount",
          "type": "uint256"
        }
      ],
      "name": "acceptOrderByDistributor",
      "outputs": [],
      "payable": false,
      "stateMutability": "nonpayable",
      "type": "function"
    },
    {
      "constant": false,
      "inputs": [
        {
          "name": "_produceraddr",
          "type": "address"
        },
        {
          "name": "_distaddr",
          "type": "address"
        },
        {
          "name": "_trackingNo",
          "type": "uint256"
        },
        {
          "name": "_quantity",
          "type": "uint256"
        }
      ],
      "name": "sendOrderByDistributor",
      "outputs": [
        {
          "name": "",
          "type": "uint256[]"
        }
      ],
      "payable": false,
      "stateMutability": "nonpayable",
      "type": "function"
    },
    {
      "anonymous": false,
      "inputs": [
        {
          "indexed": false,
          "name": "value",
          "type": "uint256"
        }
      ],
      "name": "pop",
      "type": "event"
    },
    {
      "anonymous": false,
      "inputs": [
        {
          "indexed": false,
          "name": "message",
          "type": "string"
        }
      ],
      "name": "Message",
      "type": "event"
    },
    {
      "anonymous": false,
      "inputs": [
        {
          "indexed": false,
          "name": "message",
          "type": "string"
        },
        {
          "indexed": false,
          "name": "m1",
          "type": "string"
        }
      ],
      "name": "Message1",
      "type": "event"
    },
    {
      "anonymous": false,
      "inputs": [
        {
          "indexed": false,
          "name": "_message",
          "type": "string"
        },
        {
          "indexed": false,
          "name": "_trackingNo",
          "type": "uint256"
        }
      ],
      "name": "Info",
      "type": "event"
    },
    {
      "anonymous": false,
      "inputs": [
        {
          "indexed": false,
          "name": "s1",
          "type": "string"
        },
        {
          "indexed": false,
          "name": "s2",
          "type": "string"
        },
        {
          "indexed": false,
          "name": "s3",
          "type": "string"
        },
        {
          "indexed": false,
          "name": "s4",
          "type": "address"
        }
      ],
      "name": "add",
      "type": "event"
    },
    {
      "constant": false,
      "inputs": [
        {
          "name": "_produceraddr",
          "type": "address"
        },
        {
          "name": "_distaddr",
          "type": "address"
        },
        {
          "name": "_quantity",
          "type": "uint256"
        },
        {
          "name": "_prodID",
          "type": "uint256"
        },
        {
          "name": "no",
          "type": "uint256"
        },
        {
          "name": "hrs",
          "type": "uint256"
        }
      ],
      "name": "drive",
      "outputs": [],
      "payable": false,
      "stateMutability": "nonpayable",
      "type": "function"
    }
  ],
  "bytecode": "0x608060405234801561001057600080fd5b50612d3c806100206000396000f3fe608060405234801561001057600080fd5b50600436106101215760003560e01c80636f135601116100ad578063ee81ec4311610071578063ee81ec43146109de578063f198c03914610ab8578063f63c307514610ba8578063f67a5d2514610cdc578063f7e6500c14610d5457610121565b80636f13560114610659578063724b2b0c146106e557806387e660d3146107d4578063e074839e14610861578063e29cefb31461095157610121565b80633024b810116100f45780633024b810146104235780633261154c146104b0578063327a48cc1461051257806343e999961461054057806349163513146105cc57610121565b80631214d2fd1461012657806317f7dad814610201578063274f97c6146103065780632b69bae8146103e1575b600080fd5b6101ff6004803603604081101561013c57600080fd5b81019080803573ffffffffffffffffffffffffffffffffffffffff1690602001909291908035906020019064010000000081111561017957600080fd5b82018360208201111561018b57600080fd5b803590602001918460018302840111640100000000831117156101ad57600080fd5b91908080601f016020809104026020016040519081016040528093929190818152602001838380828437600081840152601f19601f820116905080830192505050505050509192919290505050610e21565b005b6102436004803603602081101561021757600080fd5b81019080803573ffffffffffffffffffffffffffffffffffffffff169060200190929190505050610fbe565b60405180868152602001806020018581526020018473ffffffffffffffffffffffffffffffffffffffff1673ffffffffffffffffffffffffffffffffffffffff168152602001838152602001828103825286818151815260200191508051906020019080838360005b838110156102c75780820151818401526020810190506102ac565b50505050905090810190601f1680156102f45780820380516001836020036101000a031916815260200191505b50965050505050505060405180910390f35b6103df6004803603604081101561031c57600080fd5b81019080803573ffffffffffffffffffffffffffffffffffffffff1690602001909291908035906020019064010000000081111561035957600080fd5b82018360208201111561036b57600080fd5b8035906020019184600183028401116401000000008311171561038d57600080fd5b91908080601f016020809104026020016040519081016040528093929190818152602001838380828437600081840152601f19601f8201169050808301925050505050505091929192905050506110ac565b005b61040d600480360360208110156103f757600080fd5b8101908080359060200190929190505050611249565b6040518082815260200191505060405180910390f35b6104596004803603604081101561043957600080fd5b81019080803590602001909291908035906020019092919050505061144d565b6040518080602001828103825283818151815260200191508051906020019060200280838360005b8381101561049c578082015181840152602081019050610481565b505050509050019250505060405180910390f35b6104fc600480360360408110156104c657600080fd5b81019080803573ffffffffffffffffffffffffffffffffffffffff1690602001909291908035906020019092919050505061157a565b6040518082815260200191505060405180910390f35b61053e6004803603602081101561052857600080fd5b810190808035906020019092919050505061187a565b005b6105ca600480360360c081101561055657600080fd5b81019080803573ffffffffffffffffffffffffffffffffffffffff169060200190929190803573ffffffffffffffffffffffffffffffffffffffff16906020019092919080359060200190929190803590602001909291908035906020019092919080359060200190929190505050611c16565b005b610602600480360360408110156105e257600080fd5b810190808035906020019092919080359060200190929190505050611ce0565b6040518080602001828103825283818151815260200191508051906020019060200280838360005b8381101561064557808201518184015260208101905061062a565b505050509050019250505060405180910390f35b6106cf6004803603608081101561066f57600080fd5b81019080803573ffffffffffffffffffffffffffffffffffffffff169060200190929190803573ffffffffffffffffffffffffffffffffffffffff1690602001909291908035906020019092919080359060200190929190505050611e7f565b6040518082815260200191505060405180910390f35b610711600480360360208110156106fb57600080fd5b8101908080359060200190929190505050612062565b60405180868152602001806020018581526020018473ffffffffffffffffffffffffffffffffffffffff1673ffffffffffffffffffffffffffffffffffffffff168152602001838152602001828103825286818151815260200191508051906020019080838360005b8381101561079557808201518184015260208101905061077a565b50505050905090810190601f1680156107c25780820380516001836020036101000a031916815260200191505b50965050505050505060405180910390f35b610840600480360360608110156107ea57600080fd5b81019080803573ffffffffffffffffffffffffffffffffffffffff169060200190929190803573ffffffffffffffffffffffffffffffffffffffff16906020019092919080359060200190929190505050612150565b60405180831515151581526020018281526020019250505060405180910390f35b6108a36004803603602081101561087757600080fd5b81019080803573ffffffffffffffffffffffffffffffffffffffff16906020019092919050505061239d565b604051808373ffffffffffffffffffffffffffffffffffffffff1673ffffffffffffffffffffffffffffffffffffffff16815260200180602001828103825283818151815260200191508051906020019080838360005b838110156109155780820151818401526020810190506108fa565b50505050905090810190601f1680156109425780820380516001836020036101000a031916815260200191505b50935050505060405180910390f35b6109876004803603604081101561096757600080fd5b810190808035906020019092919080359060200190929190505050612479565b6040518080602001828103825283818151815260200191508051906020019060200280838360005b838110156109ca5780820151818401526020810190506109af565b505050509050019250505060405180910390f35b610a0a600480360360208110156109f457600080fd5b81019080803590602001909291905050506125a5565b604051808373ffffffffffffffffffffffffffffffffffffffff1673ffffffffffffffffffffffffffffffffffffffff16815260200180602001828103825283818151815260200191508051906020019080838360005b83811015610a7c578082015181840152602081019050610a61565b50505050905090810190601f168015610aa95780820380516001836020036101000a031916815260200191505b50935050505060405180910390f35b610afa60048036036020811015610ace57600080fd5b81019080803573ffffffffffffffffffffffffffffffffffffffff169060200190929190505050612681565b604051808373ffffffffffffffffffffffffffffffffffffffff1673ffffffffffffffffffffffffffffffffffffffff16815260200180602001828103825283818151815260200191508051906020019080838360005b83811015610b6c578082015181840152602081019050610b51565b50505050905090810190601f168015610b995780820380516001836020036101000a031916815260200191505b50935050505060405180910390f35b610bd460048036036020811015610bbe57600080fd5b810190808035906020019092919050505061275d565b6040518089151515158152602001888152602001806020018781526020018673ffffffffffffffffffffffffffffffffffffffff1673ffffffffffffffffffffffffffffffffffffffff1681526020018573ffffffffffffffffffffffffffffffffffffffff1673ffffffffffffffffffffffffffffffffffffffff168152602001848152602001838152602001828103825288818151815260200191508051906020019080838360005b83811015610c9a578082015181840152602081019050610c7f565b50505050905090810190601f168015610cc75780820380516001836020036101000a031916815260200191505b50995050505050505050505060405180910390f35b610d5260048036036080811015610cf257600080fd5b8101908080359060200190929190803573ffffffffffffffffffffffffffffffffffffffff169060200190929190803573ffffffffffffffffffffffffffffffffffffffff1690602001909291908035906020019092919050505061288a565b005b610dca60048036036080811015610d6a57600080fd5b81019080803573ffffffffffffffffffffffffffffffffffffffff169060200190929190803573ffffffffffffffffffffffffffffffffffffffff16906020019092919080359060200190929190803590602001909291905050506129c0565b6040518080602001828103825283818151815260200191508051906020019060200280838360005b83811015610e0d578082015181840152602081019050610df2565b505050509050019250505060405180910390f35b80600360008473ffffffffffffffffffffffffffffffffffffffff1673ffffffffffffffffffffffffffffffffffffffff1681526020019081526020016000206001019080519060200190610e77929190612bdc565b507f8396392da1b5a882be9ee6fbe49517ea3e7153902dec4c01984e8edcd87b07058183604051808060200180602001806020018573ffffffffffffffffffffffffffffffffffffffff1673ffffffffffffffffffffffffffffffffffffffff168152602001848103845260178152602001807f6469737472696275746f722077697468206e616d653a20000000000000000000815250602001848103835286818151815260200191508051906020019080838360005b83811015610f49578082015181840152602081019050610f2e565b50505050905090810190601f168015610f765780820380516001836020036101000a031916815260200191505b508481038252600c8152602001807f616e6420616464726573733a00000000000000000000000000000000000000008152506020019550505050505060405180910390a15050565b6004602052806000526040600020600091509050806000015490806001018054600181600116156101000203166002900480601f0160208091040260200160405190810160405280929190818152602001828054600181600116156101000203166002900480156110705780601f1061104557610100808354040283529160200191611070565b820191906000526020600020905b81548152906001019060200180831161105357829003601f168201915b5050505050908060020154908060030160009054906101000a900473ffffffffffffffffffffffffffffffffffffffff16908060040154905085565b80600160008473ffffffffffffffffffffffffffffffffffffffff1673ffffffffffffffffffffffffffffffffffffffff1681526020019081526020016000206001019080519060200190611102929190612bdc565b507f8396392da1b5a882be9ee6fbe49517ea3e7153902dec4c01984e8edcd87b07058183604051808060200180602001806020018573ffffffffffffffffffffffffffffffffffffffff1673ffffffffffffffffffffffffffffffffffffffff168152602001848103845260148152602001807f70726f64756365722077697468206e616d653a20000000000000000000000000815250602001848103835286818151815260200191508051906020019080838360005b838110156111d45780820151818401526020810190506111b9565b50505050905090810190601f1680156112015780820380516001836020036101000a031916815260200191505b508481038252600c8152602001807f616e6420616464726573733a00000000000000000000000000000000000000008152506020019550505050505060405180910390a15050565b60008082905060008090505b6008805490508110156113625760146008828154811061127157fe5b90600052602060002001541115611299576064600a85028161128f57fe5b048403935061129d565b8393505b60008090505b600780549050811015611354576050600783815481106112bf57fe5b906000526020600020015411156112e7576064600a8602816112dd57fe5b04850394506112eb565b8494505b60008090505b6009805490508110156113465760016009848154811061130d57fe5b90600052602060002001541015611335576064600a87028161132b57fe5b0486039550611339565b8595505b80806001019150506112f1565b5080806001019150506112a3565b508080600101915050611255565b507fb6b9af73896bbcf7872492e4789f20229a18ae38e4102dd44985c801bfd56354836040518080602001838152602001828103825260158152602001807f5468652046696e616c20416d6f756e742069733a2000000000000000000000008152506020019250505060405180910390a180831415611444577f51a7f65c6325882f237d4aeb43228179cfad48b868511d508e24b4437a8191376040518080602001828103825260118152602001807f437573746f6d277320566572696669656400000000000000000000000000000081525060200191505060405180910390a15b82915050919050565b606060008090505b828110156115205760076103e885604051602001808281526020019150506040516020818303038152906040528051906020012060001c8161149357fe5b06908060018154018082558091505090600182039060005260206000200160009091929091909150555083806001019450507f5dcfb4fa29f6237d65e4072a4337cd02c2f31b49da269ee511b613e22d25e314600782815481106114f357fe5b90600052602060002001546040518082815260200191505060405180910390a18080600101915050611455565b50600780548060200260200160405190810160405280929190818152602001828054801561156d57602002820191906000526020600020905b815481526020019060010190808311611559575b5050505050905092915050565b60008273ffffffffffffffffffffffffffffffffffffffff163373ffffffffffffffffffffffffffffffffffffffff16146115b457600080fd5b6000600460008573ffffffffffffffffffffffffffffffffffffffff1673ffffffffffffffffffffffffffffffffffffffff16815260200190815260200160002090506000600a848154811061160657fe5b906000526020600020906008020190507f5dcfb4fa29f6237d65e4072a4337cd02c2f31b49da269ee511b613e22d25e31481600101546040518082815260200191505060405180910390a183816001015414801561166c57508060060154826004015410155b1561182657806006015482600401540382600401819055507fb6b9af73896bbcf7872492e4789f20229a18ae38e4102dd44985c801bfd56354600560008681526020019081526020016000206001015460405180806020018381526020018281038252600e8152602001807f70726f647563742073656e743a200000000000000000000000000000000000008152506020019250505060405180910390a17fb6b9af73896bbcf7872492e4789f20229a18ae38e4102dd44985c801bfd5635482600401546040518080602001838152602001828103825260108152602001807f53746f636b2072656d61696e65643a20000000000000000000000000000000008152506020019250505060405180910390a16001600b60000160006101000a81548160ff0219169083151502179055506000826002015482600601540290507fb6b9af73896bbcf7872492e4789f20229a18ae38e4102dd44985c801bfd563548160405180806020018381526020018281038252600d8152602001807f4175746f20616d6f756e743a20000000000000000000000000000000000000008152506020019250505060405180910390a1809350505050611874565b7f51a7f65c6325882f237d4aeb43228179cfad48b868511d508e24b4437a819137604051808060200182810382526026815260200180612cc76026913960400191505060405180910390a150505b92915050565b6001811415611a48576040518060400160405280600881526020017f5265642057696e65000000000000000000000000000000000000000000000000815250600660006001815260200190815260200160002060010190805190602001906118e3929190612bdc565b50600a6006600060018152602001908152602001600020600201819055506001600660006001815260200190815260200160002060000181905550600a6006600060018152602001908152602001600020600401819055507fa72432d4b127dda7933f1c03f057c709939eb60b59aa5c33b5d050ad6e58d1a660066000600181526020019081526020016000206001016040518080602001806020018381038352600f8152602001807f50726f647563742061646465643a200000000000000000000000000000000000815250602001838103825284818154600181600116156101000203166002900481526020019150805460018160011615610100020316600290048015611a345780601f10611a0957610100808354040283529160200191611a34565b820191906000526020600020905b815481529060010190602001808311611a1757829003601f168201915b5050935050505060405180910390a1611c13565b6002811415611c12576040518060400160405280600a81526020017f57686974652057696e650000000000000000000000000000000000000000000081525060066000600281526020019081526020016000206001019080519060200190611ab1929190612bdc565b50600f600660006002815260200190815260200160002060020181905550600260066000600281526020019081526020016000206000018190555060146006600060028152602001908152602001600020600401819055507fa72432d4b127dda7933f1c03f057c709939eb60b59aa5c33b5d050ad6e58d1a660066000600281526020019081526020016000206001016040518080602001806020018381038352600f8152602001807f50726f647563742061646465643a200000000000000000000000000000000000815250602001838103825284818154600181600116156101000203166002900481526020019150805460018160011615610100020316600290048015611c025780601f10611bd757610100808354040283529160200191611c02565b820191906000526020600020905b815481529060010190602001808311611be557829003601f168201915b5050935050505060405180910390a15b5b50565b6000611c2487878787611e7f565b9050611c32878783886129c0565b506000611c3f888361157a565b90507f51a7f65c6325882f237d4aeb43228179cfad48b868511d508e24b4437a8191376040518080602001828103825260138152602001807f4f72646572206973206265696e672073656e740000000000000000000000000081525060200191505060405180910390a1611cb38484611ce0565b50611cbe8484612479565b50611cc9848461144d565b50611cd682888a8461288a565b5050505050505050565b606060008090505b82811015611e25576008606485604051602001808281526020019150506040516020818303038152906040528051906020012060001c81611d2557fe5b069080600181540180825580915050906001820390600052602060002001600090919290919091505550600a60088281548110611d5e57fe5b906000526020600020015481611d7057fe5b0660088281548110611d7e57fe5b9060005260206000200181905550600360088281548110611d9b57fe5b90600052602060002001540260088281548110611db457fe5b906000526020600020018190555083806001019450507f5dcfb4fa29f6237d65e4072a4337cd02c2f31b49da269ee511b613e22d25e31460088281548110611df857fe5b90600052602060002001546040518082815260200191505060405180910390a18080600101915050611ce8565b506008805480602002602001604051908101604052809291908181526020018280548015611e7257602002820191906000526020600020905b815481526020019060010190808311611e5e575b5050505050905092915050565b600080600160008773ffffffffffffffffffffffffffffffffffffffff1673ffffffffffffffffffffffffffffffffffffffff16815260200190815260200160002090506000600360008773ffffffffffffffffffffffffffffffffffffffff1673ffffffffffffffffffffffffffffffffffffffff1681526020019081526020016000209050868260000160006101000a81548173ffffffffffffffffffffffffffffffffffffffff021916908373ffffffffffffffffffffffffffffffffffffffff160217905550858160000160006101000a81548173ffffffffffffffffffffffffffffffffffffffff021916908373ffffffffffffffffffffffffffffffffffffffff160217905550600084604051602001808281526020019150506040516020818303038152906040528051906020012060001c905060006005600083815260200190815260200160002090508181600101819055508681600601819055507fb6b9af73896bbcf7872492e4789f20229a18ae38e4102dd44985c801bfd563548260405180806020018381526020018281038252600d8152602001807f547261636b696e67206e6f2e3a000000000000000000000000000000000000008152506020019250505060405180910390a181945050505050949350505050565b6006602052806000526040600020600091509050806000015490806001018054600181600116156101000203166002900480601f0160208091040260200160405190810160405280929190818152602001828054600181600116156101000203166002900480156121145780601f106120e957610100808354040283529160200191612114565b820191906000526020600020905b8154815290600101906020018083116120f757829003601f168201915b5050505050908060020154908060030160009054906101000a900473ffffffffffffffffffffffffffffffffffffffff16908060040154905085565b6000807fb6b9af73896bbcf7872492e4789f20229a18ae38e4102dd44985c801bfd563548360405180806020018381526020018281038252600a8152602001807f616d6f756e742069733a000000000000000000000000000000000000000000008152506020019250505060405180910390a1600083111580156122115750826000808773ffffffffffffffffffffffffffffffffffffffff1673ffffffffffffffffffffffffffffffffffffffff16815260200190815260200160002054105b1561228d577f51a7f65c6325882f237d4aeb43228179cfad48b868511d508e24b4437a8191376040518080602001828103825260128152602001807f696e73756666696369656e742066756e6473000000000000000000000000000081525060200191505060405180910390a160008080905091509150612395565b826000808773ffffffffffffffffffffffffffffffffffffffff1673ffffffffffffffffffffffffffffffffffffffff16815260200190815260200160002060008282540392505081905550826000808673ffffffffffffffffffffffffffffffffffffffff1673ffffffffffffffffffffffffffffffffffffffff168152602001908152602001600020600082825401925050819055507f51a7f65c6325882f237d4aeb43228179cfad48b868511d508e24b4437a8191376040518080602001828103825260128152602001807f5375636365737366756c207061796d656e74000000000000000000000000000081525060200191505060405180910390a1600183915091505b935093915050565b60036020528060005260406000206000915090508060000160009054906101000a900473ffffffffffffffffffffffffffffffffffffffff1690806001018054600181600116156101000203166002900480601f01602080910402602001604051908101604052809291908181526020018280546001816001161561010002031660029004801561246f5780601f106124445761010080835404028352916020019161246f565b820191906000526020600020905b81548152906001019060200180831161245257829003601f168201915b5050505050905082565b606060008090505b8281101561254b576009600a85604051602001808281526020019150506040516020818303038152906040528051906020012060001c816124be57fe5b06908060018154018082558091505090600182039060005260206000200160009091929091909150555083806001019450507f5dcfb4fa29f6237d65e4072a4337cd02c2f31b49da269ee511b613e22d25e3146009828154811061251e57fe5b90600052602060002001546040518082815260200191505060405180910390a18080600101915050612481565b50600980548060200260200160405190810160405280929190818152602001828054801561259857602002820191906000526020600020905b815481526020019060010190808311612584575b5050505050905092915050565b60026020528060005260406000206000915090508060000160009054906101000a900473ffffffffffffffffffffffffffffffffffffffff1690806001018054600181600116156101000203166002900480601f0160208091040260200160405190810160405280929190818152602001828054600181600116156101000203166002900480156126775780601f1061264c57610100808354040283529160200191612677565b820191906000526020600020905b81548152906001019060200180831161265a57829003601f168201915b5050505050905082565b60016020528060005260406000206000915090508060000160009054906101000a900473ffffffffffffffffffffffffffffffffffffffff1690806001018054600181600116156101000203166002900480601f0160208091040260200160405190810160405280929190818152602001828054600181600116156101000203166002900480156127535780601f1061272857610100808354040283529160200191612753565b820191906000526020600020905b81548152906001019060200180831161273657829003601f168201915b5050505050905082565b60056020528060005260406000206000915090508060000160009054906101000a900460ff1690806001015490806002018054600181600116156101000203166002900480601f0160208091040260200160405190810160405280929190818152602001828054600181600116156101000203166002900480156128225780601f106127f757610100808354040283529160200191612822565b820191906000526020600020905b81548152906001019060200180831161280557829003601f168201915b5050505050908060030154908060040160009054906101000a900473ffffffffffffffffffffffffffffffffffffffff16908060050160009054906101000a900473ffffffffffffffffffffffffffffffffffffffff16908060060154908060070154905088565b600060056000868152602001908152602001600020905060011515600b60000160009054906101000a900460ff161515146128c457600080fd5b84816001015414156129b9577f51a7f65c6325882f237d4aeb43228179cfad48b868511d508e24b4437a8191376040518080602001828103825260108152602001807f50726f647563742072656365697665640000000000000000000000000000000081525060200191505060405180910390a161294182611249565b915061294e848484612150565b50507f51a7f65c6325882f237d4aeb43228179cfad48b868511d508e24b4437a81913760405180806020018281038252601b8152602001807f5061796d656e742073656e74206279206469737472696275746f72000000000081525060200191505060405180910390a15b5050505050565b60607f51a7f65c6325882f237d4aeb43228179cfad48b868511d508e24b4437a819137604051808060200182810382526024815260200180612ced6024913960400191505060405180910390a1612a15612c5c565b8060200151600a8581548110612a2757fe5b90600052602060002090600802016002019080519060200190612a4b929190612bdc565b5083600a8581548110612a5a57fe5b9060005260206000209060080201600101819055508060000151600a8581548110612a8157fe5b90600052602060002090600802016003018190555084600a8581548110612aa457fe5b906000526020600020906008020160040160006101000a81548173ffffffffffffffffffffffffffffffffffffffff021916908373ffffffffffffffffffffffffffffffffffffffff16021790555085600a8581548110612b0157fe5b906000526020600020906008020160050160006101000a81548173ffffffffffffffffffffffffffffffffffffffff021916908373ffffffffffffffffffffffffffffffffffffffff16021790555082600a8581548110612b5e57fe5b9060005260206000209060080201600601819055507f5dcfb4fa29f6237d65e4072a4337cd02c2f31b49da269ee511b613e22d25e314600a8581548110612ba157fe5b9060005260206000209060080201600101546040518082815260200191505060405180910390a1612bd2868561157a565b5050949350505050565b828054600181600116156101000203166002900490600052602060002090601f016020900481019282601f10612c1d57805160ff1916838001178555612c4b565b82800160010185558215612c4b579182015b82811115612c4a578251825591602001919060010190612c2f565b5b509050612c589190612ca1565b5090565b6040518060a00160405280600081526020016060815260200160008152602001600073ffffffffffffffffffffffffffffffffffffffff168152602001600081525090565b612cc391905b80821115612cbf576000816000905550600101612ca7565b5090565b9056fe496e73756666696369656e74207175616e74697479206f722077726f6e672070726f647563744f7264657220686173206265656e20706c61636564206279206469737472696275746f72a165627a7a72305820ad78e11f3a06a22d2b3c157784a08ab84d8d5664dbde19bea0bd1cbc42ee10240029",
  "source": "pragma solidity ^0.5.8;\nimport \"./Transport.sol\";\n\ncontract Driver is Transport {\n    \n    function drive(address _produceraddr, address _distaddr, uint _quantity, uint _prodID, uint no,uint hrs) public  {\n        \n        //this should return tracking no.\n        uint _trackingNo = createOrderByDistributor(_produceraddr,_distaddr,_quantity, _prodID);\n        \n        sendOrderByDistributor(_produceraddr,_distaddr,_trackingNo,_quantity);\n        \n        //this return calculated amount \n        uint _amount = acceptOrderByProducer(_produceraddr,_trackingNo);\n        emit Message(\"Order is being sent\");\n        randomtemperature(no,  hrs);\n        randomaccelerometer(no,hrs);\n        randomluminosity(no,hrs);\n        acceptOrderByDistributor(_trackingNo,_distaddr,_produceraddr,_amount);\n        \n    }\n}\n\n\n\n    //0xCA35b7d915458EF540aDe6068dFe2F44E8fa733c   -dist\n    //0x583031D1113aD414F02576BD6afaBfb302140225   -prod",
  "sourcePath": "/home/kedar/Desktop/Transportation of sensitive goods/1_TransportationOfSensitiveGoods/contracts/Driver.sol",
  "compiler": {
    "name": "solc",
    "version": "0.5.8+commit.23d335f2.Emscripten.clang"
  },
  "schemaVersion": "3.0.11",
  "updatedAt": "2019-07-24T19:32:50.719Z",
  "devdoc": {
    "methods": {}
  },
  "userdoc": {
    "methods": {}
  }
}