{
  "contractName": "Payment",
  "abi": [
    {
      "anonymous": false,
      "inputs": [
        {
          "indexed": false,
          "name": "message",
          "type": "string"
        }
      ],
      "name": "Message",
      "type": "event"
    },
    {
      "anonymous": false,
      "inputs": [
        {
          "indexed": false,
          "name": "message",
          "type": "string"
        },
        {
          "indexed": false,
          "name": "amount",
          "type": "uint256"
        }
      ],
      "name": "Info",
      "type": "event"
    },
    {
      "constant": false,
      "inputs": [
        {
          "name": "_from",
          "type": "address"
        },
        {
          "name": "_to",
          "type": "address"
        },
        {
          "name": "_amount",
          "type": "uint256"
        }
      ],
      "name": "makePayment",
      "outputs": [
        {
          "name": "",
          "type": "bool"
        },
        {
          "name": "",
          "type": "uint256"
        }
      ],
      "payable": false,
      "stateMutability": "nonpayable",
      "type": "function"
    }
  ],
  "bytecode": "0x608060405234801561001057600080fd5b50610336806100206000396000f3fe608060405234801561001057600080fd5b506004361061002b5760003560e01c806387e660d314610030575b600080fd5b61009c6004803603606081101561004657600080fd5b81019080803573ffffffffffffffffffffffffffffffffffffffff169060200190929190803573ffffffffffffffffffffffffffffffffffffffff169060200190929190803590602001909291905050506100bd565b60405180831515151581526020018281526020019250505060405180910390f35b6000807fb6b9af73896bbcf7872492e4789f20229a18ae38e4102dd44985c801bfd563548360405180806020018381526020018281038252600a8152602001807f616d6f756e742069733a000000000000000000000000000000000000000000008152506020019250505060405180910390a16000831115801561017e5750826000808773ffffffffffffffffffffffffffffffffffffffff1673ffffffffffffffffffffffffffffffffffffffff16815260200190815260200160002054105b156101fa577f51a7f65c6325882f237d4aeb43228179cfad48b868511d508e24b4437a8191376040518080602001828103825260128152602001807f696e73756666696369656e742066756e6473000000000000000000000000000081525060200191505060405180910390a160008080905091509150610302565b826000808773ffffffffffffffffffffffffffffffffffffffff1673ffffffffffffffffffffffffffffffffffffffff16815260200190815260200160002060008282540392505081905550826000808673ffffffffffffffffffffffffffffffffffffffff1673ffffffffffffffffffffffffffffffffffffffff168152602001908152602001600020600082825401925050819055507f51a7f65c6325882f237d4aeb43228179cfad48b868511d508e24b4437a8191376040518080602001828103825260128152602001807f5375636365737366756c207061796d656e74000000000000000000000000000081525060200191505060405180910390a1600183915091505b93509391505056fea165627a7a7230582013e1eedf93da84b0d428d61f5378692fe7c33fc2ddd40c74617ef6c164fba2400029",
  "source": "pragma solidity ^0.5.8;\n\ncontract Payment {\n      mapping(address => uint) accbalance;\n        event Message(string message);\n        event Info(string message, uint amount);\n        \n        function makePayment(address _from, address _to, uint _amount )public returns(bool, uint){\n        emit Info('amount is:',_amount);\n            if(_amount<=0 && accbalance[_from]<_amount) {\n                emit Message('insufficient funds');\n                return (false, 0);\n        }\n            accbalance[_from] -= _amount;\n            accbalance[_to] += _amount;\n            emit Message('Successful payment');\n            return (true, _amount);\n        }\n        \n}\n",
  "sourcePath": "/home/kedar/Desktop/Transportation of sensitive goods/1_TransportationOfSensitiveGoods/contracts/Payment.sol",
  "compiler": {
    "name": "solc",
    "version": "0.5.8+commit.23d335f2.Emscripten.clang"
  },
  "schemaVersion": "3.0.11",
  "updatedAt": "2019-07-24T19:32:50.722Z",
  "devdoc": {
    "methods": {}
  },
  "userdoc": {
    "methods": {}
  }
}