{
  "contractName": "Transport",
  "abi": [
    {
      "constant": true,
      "inputs": [
        {
          "name": "",
          "type": "address"
        }
      ],
      "name": "product",
      "outputs": [
        {
          "name": "prodID",
          "type": "uint256"
        },
        {
          "name": "prodname",
          "type": "string"
        },
        {
          "name": "pricePerUnit",
          "type": "uint256"
        },
        {
          "name": "produceraddr",
          "type": "address"
        },
        {
          "name": "stock",
          "type": "uint256"
        }
      ],
      "payable": false,
      "stateMutability": "view",
      "type": "function"
    },
    {
      "constant": true,
      "inputs": [
        {
          "name": "",
          "type": "uint256"
        }
      ],
      "name": "pro",
      "outputs": [
        {
          "name": "prodID",
          "type": "uint256"
        },
        {
          "name": "prodname",
          "type": "string"
        },
        {
          "name": "pricePerUnit",
          "type": "uint256"
        },
        {
          "name": "produceraddr",
          "type": "address"
        },
        {
          "name": "stock",
          "type": "uint256"
        }
      ],
      "payable": false,
      "stateMutability": "view",
      "type": "function"
    },
    {
      "constant": false,
      "inputs": [
        {
          "name": "_from",
          "type": "address"
        },
        {
          "name": "_to",
          "type": "address"
        },
        {
          "name": "_amount",
          "type": "uint256"
        }
      ],
      "name": "makePayment",
      "outputs": [
        {
          "name": "",
          "type": "bool"
        },
        {
          "name": "",
          "type": "uint256"
        }
      ],
      "payable": false,
      "stateMutability": "nonpayable",
      "type": "function"
    },
    {
      "constant": true,
      "inputs": [
        {
          "name": "",
          "type": "address"
        }
      ],
      "name": "distributor",
      "outputs": [
        {
          "name": "distaddr",
          "type": "address"
        },
        {
          "name": "distname",
          "type": "string"
        }
      ],
      "payable": false,
      "stateMutability": "view",
      "type": "function"
    },
    {
      "constant": true,
      "inputs": [
        {
          "name": "",
          "type": "uint256"
        }
      ],
      "name": "prostock",
      "outputs": [
        {
          "name": "produceraddr",
          "type": "address"
        },
        {
          "name": "producername",
          "type": "string"
        }
      ],
      "payable": false,
      "stateMutability": "view",
      "type": "function"
    },
    {
      "constant": true,
      "inputs": [
        {
          "name": "",
          "type": "address"
        }
      ],
      "name": "producer",
      "outputs": [
        {
          "name": "produceraddr",
          "type": "address"
        },
        {
          "name": "producername",
          "type": "string"
        }
      ],
      "payable": false,
      "stateMutability": "view",
      "type": "function"
    },
    {
      "constant": true,
      "inputs": [
        {
          "name": "",
          "type": "uint256"
        }
      ],
      "name": "trackingorder",
      "outputs": [
        {
          "name": "flag",
          "type": "bool"
        },
        {
          "name": "trackingNo",
          "type": "uint256"
        },
        {
          "name": "prodname",
          "type": "string"
        },
        {
          "name": "prodID",
          "type": "uint256"
        },
        {
          "name": "distaddr",
          "type": "address"
        },
        {
          "name": "produceraddr",
          "type": "address"
        },
        {
          "name": "quantity",
          "type": "uint256"
        },
        {
          "name": "amount",
          "type": "uint256"
        }
      ],
      "payable": false,
      "stateMutability": "view",
      "type": "function"
    },
    {
      "anonymous": false,
      "inputs": [
        {
          "indexed": false,
          "name": "value",
          "type": "uint256"
        }
      ],
      "name": "pop",
      "type": "event"
    },
    {
      "anonymous": false,
      "inputs": [
        {
          "indexed": false,
          "name": "message",
          "type": "string"
        }
      ],
      "name": "Message",
      "type": "event"
    },
    {
      "anonymous": false,
      "inputs": [
        {
          "indexed": false,
          "name": "message",
          "type": "string"
        },
        {
          "indexed": false,
          "name": "m1",
          "type": "string"
        }
      ],
      "name": "Message1",
      "type": "event"
    },
    {
      "anonymous": false,
      "inputs": [
        {
          "indexed": false,
          "name": "_message",
          "type": "string"
        },
        {
          "indexed": false,
          "name": "_trackingNo",
          "type": "uint256"
        }
      ],
      "name": "Info",
      "type": "event"
    },
    {
      "anonymous": false,
      "inputs": [
        {
          "indexed": false,
          "name": "s1",
          "type": "string"
        },
        {
          "indexed": false,
          "name": "s2",
          "type": "string"
        },
        {
          "indexed": false,
          "name": "s3",
          "type": "string"
        },
        {
          "indexed": false,
          "name": "s4",
          "type": "address"
        }
      ],
      "name": "add",
      "type": "event"
    },
    {
      "constant": false,
      "inputs": [
        {
          "name": "_produceraddr",
          "type": "address"
        },
        {
          "name": "_name",
          "type": "string"
        }
      ],
      "name": "addProducer",
      "outputs": [],
      "payable": false,
      "stateMutability": "nonpayable",
      "type": "function"
    },
    {
      "constant": false,
      "inputs": [
        {
          "name": "_distaddr",
          "type": "address"
        },
        {
          "name": "_name",
          "type": "string"
        }
      ],
      "name": "addDistributor",
      "outputs": [],
      "payable": false,
      "stateMutability": "nonpayable",
      "type": "function"
    },
    {
      "constant": false,
      "inputs": [
        {
          "name": "_prodID",
          "type": "uint256"
        }
      ],
      "name": "addProduct",
      "outputs": [],
      "payable": false,
      "stateMutability": "nonpayable",
      "type": "function"
    },
    {
      "constant": false,
      "inputs": [
        {
          "name": "_produceraddr",
          "type": "address"
        },
        {
          "name": "_distaddr",
          "type": "address"
        },
        {
          "name": "_quantity",
          "type": "uint256"
        },
        {
          "name": "_prodID",
          "type": "uint256"
        }
      ],
      "name": "createOrderByDistributor",
      "outputs": [
        {
          "name": "",
          "type": "uint256"
        }
      ],
      "payable": false,
      "stateMutability": "nonpayable",
      "type": "function"
    },
    {
      "constant": false,
      "inputs": [
        {
          "name": "_produceraddr",
          "type": "address"
        },
        {
          "name": "_distaddr",
          "type": "address"
        },
        {
          "name": "_trackingNo",
          "type": "uint256"
        },
        {
          "name": "_quantity",
          "type": "uint256"
        }
      ],
      "name": "sendOrderByDistributor",
      "outputs": [
        {
          "name": "",
          "type": "uint256[]"
        }
      ],
      "payable": false,
      "stateMutability": "nonpayable",
      "type": "function"
    },
    {
      "constant": false,
      "inputs": [
        {
          "name": "_produceraddr",
          "type": "address"
        },
        {
          "name": "_trackingNo",
          "type": "uint256"
        }
      ],
      "name": "acceptOrderByProducer",
      "outputs": [
        {
          "name": "",
          "type": "uint256"
        }
      ],
      "payable": false,
      "stateMutability": "nonpayable",
      "type": "function"
    },
    {
      "constant": false,
      "inputs": [
        {
          "name": "no",
          "type": "uint256"
        },
        {
          "name": "hrs",
          "type": "uint256"
        }
      ],
      "name": "randomtemperature",
      "outputs": [
        {
          "name": "",
          "type": "uint256[]"
        }
      ],
      "payable": false,
      "stateMutability": "nonpayable",
      "type": "function"
    },
    {
      "constant": false,
      "inputs": [
        {
          "name": "no",
          "type": "uint256"
        },
        {
          "name": "hrs",
          "type": "uint256"
        }
      ],
      "name": "randomaccelerometer",
      "outputs": [
        {
          "name": "",
          "type": "uint256[]"
        }
      ],
      "payable": false,
      "stateMutability": "nonpayable",
      "type": "function"
    },
    {
      "constant": false,
      "inputs": [
        {
          "name": "no",
          "type": "uint256"
        },
        {
          "name": "hrs",
          "type": "uint256"
        }
      ],
      "name": "randomluminosity",
      "outputs": [
        {
          "name": "",
          "type": "uint256[]"
        }
      ],
      "payable": false,
      "stateMutability": "nonpayable",
      "type": "function"
    },
    {
      "constant": false,
      "inputs": [
        {
          "name": "_trackingNo",
          "type": "uint256"
        },
        {
          "name": "_distaddr",
          "type": "address"
        },
        {
          "name": "_produceraddr",
          "type": "address"
        },
        {
          "name": "_amount",
          "type": "uint256"
        }
      ],
      "name": "acceptOrderByDistributor",
      "outputs": [],
      "payable": false,
      "stateMutability": "nonpayable",
      "type": "function"
    },
    {
      "constant": false,
      "inputs": [
        {
          "name": "_amount",
          "type": "uint256"
        }
      ],
      "name": "checkprice",
      "outputs": [
        {
          "name": "",
          "type": "uint256"
        }
      ],
      "payable": false,
      "stateMutability": "nonpayable",
      "type": "function"
    }
  ],
  "bytecode": "0x608060405234801561001057600080fd5b50612bdb806100206000396000f3fe608060405234801561001057600080fd5b50600436106101165760003560e01c8063724b2b0c116100a2578063ee81ec4311610071578063ee81ec4314610947578063f198c03914610a21578063f63c307514610b11578063f67a5d2514610c45578063f7e6500c14610cbd57610116565b8063724b2b0c1461064e57806387e660d31461073d578063e074839e146107ca578063e29cefb3146108ba57610116565b80633024b810116100e95780633024b810146104185780633261154c146104a5578063327a48cc1461050757806349163513146105355780636f135601146105c257610116565b80631214d2fd1461011b57806317f7dad8146101f6578063274f97c6146102fb5780632b69bae8146103d6575b600080fd5b6101f46004803603604081101561013157600080fd5b81019080803573ffffffffffffffffffffffffffffffffffffffff1690602001909291908035906020019064010000000081111561016e57600080fd5b82018360208201111561018057600080fd5b803590602001918460018302840111640100000000831117156101a257600080fd5b91908080601f016020809104026020016040519081016040528093929190818152602001838380828437600081840152601f19601f820116905080830192505050505050509192919290505050610d8a565b005b6102386004803603602081101561020c57600080fd5b81019080803573ffffffffffffffffffffffffffffffffffffffff169060200190929190505050610f27565b60405180868152602001806020018581526020018473ffffffffffffffffffffffffffffffffffffffff1673ffffffffffffffffffffffffffffffffffffffff168152602001838152602001828103825286818151815260200191508051906020019080838360005b838110156102bc5780820151818401526020810190506102a1565b50505050905090810190601f1680156102e95780820380516001836020036101000a031916815260200191505b50965050505050505060405180910390f35b6103d46004803603604081101561031157600080fd5b81019080803573ffffffffffffffffffffffffffffffffffffffff1690602001909291908035906020019064010000000081111561034e57600080fd5b82018360208201111561036057600080fd5b8035906020019184600183028401116401000000008311171561038257600080fd5b91908080601f016020809104026020016040519081016040528093929190818152602001838380828437600081840152601f19601f820116905080830192505050505050509192919290505050611015565b005b610402600480360360208110156103ec57600080fd5b81019080803590602001909291905050506111b2565b6040518082815260200191505060405180910390f35b61044e6004803603604081101561042e57600080fd5b8101908080359060200190929190803590602001909291905050506113b6565b6040518080602001828103825283818151815260200191508051906020019060200280838360005b83811015610491578082015181840152602081019050610476565b505050509050019250505060405180910390f35b6104f1600480360360408110156104bb57600080fd5b81019080803573ffffffffffffffffffffffffffffffffffffffff169060200190929190803590602001909291905050506114e3565b6040518082815260200191505060405180910390f35b6105336004803603602081101561051d57600080fd5b81019080803590602001909291905050506117e3565b005b61056b6004803603604081101561054b57600080fd5b810190808035906020019092919080359060200190929190505050611b7f565b6040518080602001828103825283818151815260200191508051906020019060200280838360005b838110156105ae578082015181840152602081019050610593565b505050509050019250505060405180910390f35b610638600480360360808110156105d857600080fd5b81019080803573ffffffffffffffffffffffffffffffffffffffff169060200190929190803573ffffffffffffffffffffffffffffffffffffffff1690602001909291908035906020019092919080359060200190929190505050611d1e565b6040518082815260200191505060405180910390f35b61067a6004803603602081101561066457600080fd5b8101908080359060200190929190505050611f01565b60405180868152602001806020018581526020018473ffffffffffffffffffffffffffffffffffffffff1673ffffffffffffffffffffffffffffffffffffffff168152602001838152602001828103825286818151815260200191508051906020019080838360005b838110156106fe5780820151818401526020810190506106e3565b50505050905090810190601f16801561072b5780820380516001836020036101000a031916815260200191505b50965050505050505060405180910390f35b6107a96004803603606081101561075357600080fd5b81019080803573ffffffffffffffffffffffffffffffffffffffff169060200190929190803573ffffffffffffffffffffffffffffffffffffffff16906020019092919080359060200190929190505050611fef565b60405180831515151581526020018281526020019250505060405180910390f35b61080c600480360360208110156107e057600080fd5b81019080803573ffffffffffffffffffffffffffffffffffffffff16906020019092919050505061223c565b604051808373ffffffffffffffffffffffffffffffffffffffff1673ffffffffffffffffffffffffffffffffffffffff16815260200180602001828103825283818151815260200191508051906020019080838360005b8381101561087e578082015181840152602081019050610863565b50505050905090810190601f1680156108ab5780820380516001836020036101000a031916815260200191505b50935050505060405180910390f35b6108f0600480360360408110156108d057600080fd5b810190808035906020019092919080359060200190929190505050612318565b6040518080602001828103825283818151815260200191508051906020019060200280838360005b83811015610933578082015181840152602081019050610918565b505050509050019250505060405180910390f35b6109736004803603602081101561095d57600080fd5b8101908080359060200190929190505050612444565b604051808373ffffffffffffffffffffffffffffffffffffffff1673ffffffffffffffffffffffffffffffffffffffff16815260200180602001828103825283818151815260200191508051906020019080838360005b838110156109e55780820151818401526020810190506109ca565b50505050905090810190601f168015610a125780820380516001836020036101000a031916815260200191505b50935050505060405180910390f35b610a6360048036036020811015610a3757600080fd5b81019080803573ffffffffffffffffffffffffffffffffffffffff169060200190929190505050612520565b604051808373ffffffffffffffffffffffffffffffffffffffff1673ffffffffffffffffffffffffffffffffffffffff16815260200180602001828103825283818151815260200191508051906020019080838360005b83811015610ad5578082015181840152602081019050610aba565b50505050905090810190601f168015610b025780820380516001836020036101000a031916815260200191505b50935050505060405180910390f35b610b3d60048036036020811015610b2757600080fd5b81019080803590602001909291905050506125fc565b6040518089151515158152602001888152602001806020018781526020018673ffffffffffffffffffffffffffffffffffffffff1673ffffffffffffffffffffffffffffffffffffffff1681526020018573ffffffffffffffffffffffffffffffffffffffff1673ffffffffffffffffffffffffffffffffffffffff168152602001848152602001838152602001828103825288818151815260200191508051906020019080838360005b83811015610c03578082015181840152602081019050610be8565b50505050905090810190601f168015610c305780820380516001836020036101000a031916815260200191505b50995050505050505050505060405180910390f35b610cbb60048036036080811015610c5b57600080fd5b8101908080359060200190929190803573ffffffffffffffffffffffffffffffffffffffff169060200190929190803573ffffffffffffffffffffffffffffffffffffffff16906020019092919080359060200190929190505050612729565b005b610d3360048036036080811015610cd357600080fd5b81019080803573ffffffffffffffffffffffffffffffffffffffff169060200190929190803573ffffffffffffffffffffffffffffffffffffffff169060200190929190803590602001909291908035906020019092919050505061285f565b6040518080602001828103825283818151815260200191508051906020019060200280838360005b83811015610d76578082015181840152602081019050610d5b565b505050509050019250505060405180910390f35b80600360008473ffffffffffffffffffffffffffffffffffffffff1673ffffffffffffffffffffffffffffffffffffffff1681526020019081526020016000206001019080519060200190610de0929190612a7b565b507f8396392da1b5a882be9ee6fbe49517ea3e7153902dec4c01984e8edcd87b07058183604051808060200180602001806020018573ffffffffffffffffffffffffffffffffffffffff1673ffffffffffffffffffffffffffffffffffffffff168152602001848103845260178152602001807f6469737472696275746f722077697468206e616d653a20000000000000000000815250602001848103835286818151815260200191508051906020019080838360005b83811015610eb2578082015181840152602081019050610e97565b50505050905090810190601f168015610edf5780820380516001836020036101000a031916815260200191505b508481038252600c8152602001807f616e6420616464726573733a00000000000000000000000000000000000000008152506020019550505050505060405180910390a15050565b6004602052806000526040600020600091509050806000015490806001018054600181600116156101000203166002900480601f016020809104026020016040519081016040528092919081815260200182805460018160011615610100020316600290048015610fd95780601f10610fae57610100808354040283529160200191610fd9565b820191906000526020600020905b815481529060010190602001808311610fbc57829003601f168201915b5050505050908060020154908060030160009054906101000a900473ffffffffffffffffffffffffffffffffffffffff16908060040154905085565b80600160008473ffffffffffffffffffffffffffffffffffffffff1673ffffffffffffffffffffffffffffffffffffffff168152602001908152602001600020600101908051906020019061106b929190612a7b565b507f8396392da1b5a882be9ee6fbe49517ea3e7153902dec4c01984e8edcd87b07058183604051808060200180602001806020018573ffffffffffffffffffffffffffffffffffffffff1673ffffffffffffffffffffffffffffffffffffffff168152602001848103845260148152602001807f70726f64756365722077697468206e616d653a20000000000000000000000000815250602001848103835286818151815260200191508051906020019080838360005b8381101561113d578082015181840152602081019050611122565b50505050905090810190601f16801561116a5780820380516001836020036101000a031916815260200191505b508481038252600c8152602001807f616e6420616464726573733a00000000000000000000000000000000000000008152506020019550505050505060405180910390a15050565b60008082905060008090505b6008805490508110156112cb576014600882815481106111da57fe5b90600052602060002001541115611202576064600a8502816111f857fe5b0484039350611206565b8393505b60008090505b6007805490508110156112bd5760506007838154811061122857fe5b90600052602060002001541115611250576064600a86028161124657fe5b0485039450611254565b8494505b60008090505b6009805490508110156112af5760016009848154811061127657fe5b9060005260206000200154101561129e576064600a87028161129457fe5b04860395506112a2565b8595505b808060010191505061125a565b50808060010191505061120c565b5080806001019150506111be565b507fb6b9af73896bbcf7872492e4789f20229a18ae38e4102dd44985c801bfd56354836040518080602001838152602001828103825260158152602001807f5468652046696e616c20416d6f756e742069733a2000000000000000000000008152506020019250505060405180910390a1808314156113ad577f51a7f65c6325882f237d4aeb43228179cfad48b868511d508e24b4437a8191376040518080602001828103825260118152602001807f437573746f6d277320566572696669656400000000000000000000000000000081525060200191505060405180910390a15b82915050919050565b606060008090505b828110156114895760076103e885604051602001808281526020019150506040516020818303038152906040528051906020012060001c816113fc57fe5b06908060018154018082558091505090600182039060005260206000200160009091929091909150555083806001019450507f5dcfb4fa29f6237d65e4072a4337cd02c2f31b49da269ee511b613e22d25e3146007828154811061145c57fe5b90600052602060002001546040518082815260200191505060405180910390a180806001019150506113be565b5060078054806020026020016040519081016040528092919081815260200182805480156114d657602002820191906000526020600020905b8154815260200190600101908083116114c2575b5050505050905092915050565b60008273ffffffffffffffffffffffffffffffffffffffff163373ffffffffffffffffffffffffffffffffffffffff161461151d57600080fd5b6000600460008573ffffffffffffffffffffffffffffffffffffffff1673ffffffffffffffffffffffffffffffffffffffff16815260200190815260200160002090506000600a848154811061156f57fe5b906000526020600020906008020190507f5dcfb4fa29f6237d65e4072a4337cd02c2f31b49da269ee511b613e22d25e31481600101546040518082815260200191505060405180910390a18381600101541480156115d557508060060154826004015410155b1561178f57806006015482600401540382600401819055507fb6b9af73896bbcf7872492e4789f20229a18ae38e4102dd44985c801bfd56354600560008681526020019081526020016000206001015460405180806020018381526020018281038252600e8152602001807f70726f647563742073656e743a200000000000000000000000000000000000008152506020019250505060405180910390a17fb6b9af73896bbcf7872492e4789f20229a18ae38e4102dd44985c801bfd5635482600401546040518080602001838152602001828103825260108152602001807f53746f636b2072656d61696e65643a20000000000000000000000000000000008152506020019250505060405180910390a16001600b60000160006101000a81548160ff0219169083151502179055506000826002015482600601540290507fb6b9af73896bbcf7872492e4789f20229a18ae38e4102dd44985c801bfd563548160405180806020018381526020018281038252600d8152602001807f4175746f20616d6f756e743a20000000000000000000000000000000000000008152506020019250505060405180910390a18093505050506117dd565b7f51a7f65c6325882f237d4aeb43228179cfad48b868511d508e24b4437a819137604051808060200182810382526026815260200180612b666026913960400191505060405180910390a150505b92915050565b60018114156119b1576040518060400160405280600881526020017f5265642057696e650000000000000000000000000000000000000000000000008152506006600060018152602001908152602001600020600101908051906020019061184c929190612a7b565b50600a6006600060018152602001908152602001600020600201819055506001600660006001815260200190815260200160002060000181905550600a6006600060018152602001908152602001600020600401819055507fa72432d4b127dda7933f1c03f057c709939eb60b59aa5c33b5d050ad6e58d1a660066000600181526020019081526020016000206001016040518080602001806020018381038352600f8152602001807f50726f647563742061646465643a20000000000000000000000000000000000081525060200183810382528481815460018160011615610100020316600290048152602001915080546001816001161561010002031660029004801561199d5780601f106119725761010080835404028352916020019161199d565b820191906000526020600020905b81548152906001019060200180831161198057829003601f168201915b5050935050505060405180910390a1611b7c565b6002811415611b7b576040518060400160405280600a81526020017f57686974652057696e650000000000000000000000000000000000000000000081525060066000600281526020019081526020016000206001019080519060200190611a1a929190612a7b565b50600f600660006002815260200190815260200160002060020181905550600260066000600281526020019081526020016000206000018190555060146006600060028152602001908152602001600020600401819055507fa72432d4b127dda7933f1c03f057c709939eb60b59aa5c33b5d050ad6e58d1a660066000600281526020019081526020016000206001016040518080602001806020018381038352600f8152602001807f50726f647563742061646465643a200000000000000000000000000000000000815250602001838103825284818154600181600116156101000203166002900481526020019150805460018160011615610100020316600290048015611b6b5780601f10611b4057610100808354040283529160200191611b6b565b820191906000526020600020905b815481529060010190602001808311611b4e57829003601f168201915b5050935050505060405180910390a15b5b50565b606060008090505b82811015611cc4576008606485604051602001808281526020019150506040516020818303038152906040528051906020012060001c81611bc457fe5b069080600181540180825580915050906001820390600052602060002001600090919290919091505550600a60088281548110611bfd57fe5b906000526020600020015481611c0f57fe5b0660088281548110611c1d57fe5b9060005260206000200181905550600360088281548110611c3a57fe5b90600052602060002001540260088281548110611c5357fe5b906000526020600020018190555083806001019450507f5dcfb4fa29f6237d65e4072a4337cd02c2f31b49da269ee511b613e22d25e31460088281548110611c9757fe5b90600052602060002001546040518082815260200191505060405180910390a18080600101915050611b87565b506008805480602002602001604051908101604052809291908181526020018280548015611d1157602002820191906000526020600020905b815481526020019060010190808311611cfd575b5050505050905092915050565b600080600160008773ffffffffffffffffffffffffffffffffffffffff1673ffffffffffffffffffffffffffffffffffffffff16815260200190815260200160002090506000600360008773ffffffffffffffffffffffffffffffffffffffff1673ffffffffffffffffffffffffffffffffffffffff1681526020019081526020016000209050868260000160006101000a81548173ffffffffffffffffffffffffffffffffffffffff021916908373ffffffffffffffffffffffffffffffffffffffff160217905550858160000160006101000a81548173ffffffffffffffffffffffffffffffffffffffff021916908373ffffffffffffffffffffffffffffffffffffffff160217905550600084604051602001808281526020019150506040516020818303038152906040528051906020012060001c905060006005600083815260200190815260200160002090508181600101819055508681600601819055507fb6b9af73896bbcf7872492e4789f20229a18ae38e4102dd44985c801bfd563548260405180806020018381526020018281038252600d8152602001807f547261636b696e67206e6f2e3a000000000000000000000000000000000000008152506020019250505060405180910390a181945050505050949350505050565b6006602052806000526040600020600091509050806000015490806001018054600181600116156101000203166002900480601f016020809104026020016040519081016040528092919081815260200182805460018160011615610100020316600290048015611fb35780601f10611f8857610100808354040283529160200191611fb3565b820191906000526020600020905b815481529060010190602001808311611f9657829003601f168201915b5050505050908060020154908060030160009054906101000a900473ffffffffffffffffffffffffffffffffffffffff16908060040154905085565b6000807fb6b9af73896bbcf7872492e4789f20229a18ae38e4102dd44985c801bfd563548360405180806020018381526020018281038252600a8152602001807f616d6f756e742069733a000000000000000000000000000000000000000000008152506020019250505060405180910390a1600083111580156120b05750826000808773ffffffffffffffffffffffffffffffffffffffff1673ffffffffffffffffffffffffffffffffffffffff16815260200190815260200160002054105b1561212c577f51a7f65c6325882f237d4aeb43228179cfad48b868511d508e24b4437a8191376040518080602001828103825260128152602001807f696e73756666696369656e742066756e6473000000000000000000000000000081525060200191505060405180910390a160008080905091509150612234565b826000808773ffffffffffffffffffffffffffffffffffffffff1673ffffffffffffffffffffffffffffffffffffffff16815260200190815260200160002060008282540392505081905550826000808673ffffffffffffffffffffffffffffffffffffffff1673ffffffffffffffffffffffffffffffffffffffff168152602001908152602001600020600082825401925050819055507f51a7f65c6325882f237d4aeb43228179cfad48b868511d508e24b4437a8191376040518080602001828103825260128152602001807f5375636365737366756c207061796d656e74000000000000000000000000000081525060200191505060405180910390a1600183915091505b935093915050565b60036020528060005260406000206000915090508060000160009054906101000a900473ffffffffffffffffffffffffffffffffffffffff1690806001018054600181600116156101000203166002900480601f01602080910402602001604051908101604052809291908181526020018280546001816001161561010002031660029004801561230e5780601f106122e35761010080835404028352916020019161230e565b820191906000526020600020905b8154815290600101906020018083116122f157829003601f168201915b5050505050905082565b606060008090505b828110156123ea576009600a85604051602001808281526020019150506040516020818303038152906040528051906020012060001c8161235d57fe5b06908060018154018082558091505090600182039060005260206000200160009091929091909150555083806001019450507f5dcfb4fa29f6237d65e4072a4337cd02c2f31b49da269ee511b613e22d25e314600982815481106123bd57fe5b90600052602060002001546040518082815260200191505060405180910390a18080600101915050612320565b50600980548060200260200160405190810160405280929190818152602001828054801561243757602002820191906000526020600020905b815481526020019060010190808311612423575b5050505050905092915050565b60026020528060005260406000206000915090508060000160009054906101000a900473ffffffffffffffffffffffffffffffffffffffff1690806001018054600181600116156101000203166002900480601f0160208091040260200160405190810160405280929190818152602001828054600181600116156101000203166002900480156125165780601f106124eb57610100808354040283529160200191612516565b820191906000526020600020905b8154815290600101906020018083116124f957829003601f168201915b5050505050905082565b60016020528060005260406000206000915090508060000160009054906101000a900473ffffffffffffffffffffffffffffffffffffffff1690806001018054600181600116156101000203166002900480601f0160208091040260200160405190810160405280929190818152602001828054600181600116156101000203166002900480156125f25780601f106125c7576101008083540402835291602001916125f2565b820191906000526020600020905b8154815290600101906020018083116125d557829003601f168201915b5050505050905082565b60056020528060005260406000206000915090508060000160009054906101000a900460ff1690806001015490806002018054600181600116156101000203166002900480601f0160208091040260200160405190810160405280929190818152602001828054600181600116156101000203166002900480156126c15780601f10612696576101008083540402835291602001916126c1565b820191906000526020600020905b8154815290600101906020018083116126a457829003601f168201915b5050505050908060030154908060040160009054906101000a900473ffffffffffffffffffffffffffffffffffffffff16908060050160009054906101000a900473ffffffffffffffffffffffffffffffffffffffff16908060060154908060070154905088565b600060056000868152602001908152602001600020905060011515600b60000160009054906101000a900460ff1615151461276357600080fd5b8481600101541415612858577f51a7f65c6325882f237d4aeb43228179cfad48b868511d508e24b4437a8191376040518080602001828103825260108152602001807f50726f647563742072656365697665640000000000000000000000000000000081525060200191505060405180910390a16127e0826111b2565b91506127ed848484611fef565b50507f51a7f65c6325882f237d4aeb43228179cfad48b868511d508e24b4437a81913760405180806020018281038252601b8152602001807f5061796d656e742073656e74206279206469737472696275746f72000000000081525060200191505060405180910390a15b5050505050565b60607f51a7f65c6325882f237d4aeb43228179cfad48b868511d508e24b4437a819137604051808060200182810382526024815260200180612b8c6024913960400191505060405180910390a16128b4612afb565b8060200151600a85815481106128c657fe5b906000526020600020906008020160020190805190602001906128ea929190612a7b565b5083600a85815481106128f957fe5b9060005260206000209060080201600101819055508060000151600a858154811061292057fe5b90600052602060002090600802016003018190555084600a858154811061294357fe5b906000526020600020906008020160040160006101000a81548173ffffffffffffffffffffffffffffffffffffffff021916908373ffffffffffffffffffffffffffffffffffffffff16021790555085600a85815481106129a057fe5b906000526020600020906008020160050160006101000a81548173ffffffffffffffffffffffffffffffffffffffff021916908373ffffffffffffffffffffffffffffffffffffffff16021790555082600a85815481106129fd57fe5b9060005260206000209060080201600601819055507f5dcfb4fa29f6237d65e4072a4337cd02c2f31b49da269ee511b613e22d25e314600a8581548110612a4057fe5b9060005260206000209060080201600101546040518082815260200191505060405180910390a1612a7186856114e3565b5050949350505050565b828054600181600116156101000203166002900490600052602060002090601f016020900481019282601f10612abc57805160ff1916838001178555612aea565b82800160010185558215612aea579182015b82811115612ae9578251825591602001919060010190612ace565b5b509050612af79190612b40565b5090565b6040518060a00160405280600081526020016060815260200160008152602001600073ffffffffffffffffffffffffffffffffffffffff168152602001600081525090565b612b6291905b80821115612b5e576000816000905550600101612b46565b5090565b9056fe496e73756666696369656e74207175616e74697479206f722077726f6e672070726f647563744f7264657220686173206265656e20706c61636564206279206469737472696275746f72a165627a7a723058208b82c412a7e974582b9f49a1b497bc62926f09fcf3de83c59a0f6da3148edfd90029",
  "source": "pragma solidity ^0.5.8;\nimport \"./Payment.sol\";\n\n \n  \ncontract Transport is Payment{\n     \n        struct Producer {\n            address produceraddr;\n            string producername;\n        }\n        \n        struct Distributor {\n            address distaddr;\n            string distname;\n        }\n        \n        struct Product {\n            uint prodID;\n            string prodname;\n            uint pricePerUnit;\n            address produceraddr;\n            uint stock;\n        }\n        \n        \n        struct TrackingOrder {\n            bool flag;\n            uint trackingNo;\n            string prodname;\n            uint prodID;\n            address distaddr;\n            address produceraddr;\n            uint quantity;\n            uint amount;\n        }\n        \n        mapping(address => Producer) public producer;\n        mapping(uint => Producer) public prostock;\n        mapping(address => Distributor) public distributor;\n        mapping(address => Product) public product; \n        mapping(uint => TrackingOrder) public trackingorder;\n        mapping( uint => Product) public pro;  \n\n        //Arrays\n\t    uint[] luminosity;\n\t    uint[] temperature;\n\t    uint[] accelerometer;\n\t    TrackingOrder[] tracking ;\n        //Events\n        event pop(uint value);\n        event Message(string message);\n        event Message1(string message, string m1);\n        event Info(string _message,uint _trackingNo);\n        event add(string s1,string s2,string s3,address s4);\n        //addition functions\n       \n        function addProducer(address _produceraddr, string memory _name) public {\n            producer[_produceraddr].producername = _name;\n            emit add(\"producer with name: \",_name,\"and address:\", _produceraddr);\n        }\n        \n        function addDistributor(address _distaddr, string memory _name) public {\n            distributor[_distaddr].distname= _name;\n            emit add(\"distributor with name: \",_name,\"and address:\", _distaddr);\n        }\n        \n        function addProduct(uint _prodID) public {\n        \n        if(_prodID == 1)\n        {\n            pro[1].prodname= \"Red Wine\";\n            pro[1].pricePerUnit= 10;\n            pro[1].prodID= 1;\n            pro[1].stock = 10;\n            emit Message1(\"Product added: \",pro[1].prodname);\n            \n        }\n        \n        else if(_prodID ==2)\n        {\n            pro[2].prodname= \"White Wine\";\n            pro[2].pricePerUnit= 15;\n            pro[2].prodID= 2;\n            pro[2].stock= 20;\n            emit Message1(\"Product added: \",pro[2].prodname);\n        }\n        }\n        \n        \n        \n        //setupShipment is supposed to be called by Distributor\n      \n        function createOrderByDistributor(address _produceraddr, address _distaddr,uint _quantity, uint _prodID) public returns(uint){ \n            Producer storage p = producer [_produceraddr];\n            Distributor storage d = distributor[_distaddr];\n            p.produceraddr = _produceraddr;\n            d.distaddr = _distaddr;\n            \n            uint _trackingNo = uint256(keccak256(abi.encodePacked(_prodID)));\n            \n            TrackingOrder storage t = trackingorder[_trackingNo];\n            t.trackingNo = _trackingNo;\n            t.quantity = _quantity;\n            emit Info(\"Tracking no.:\",_trackingNo);\n            return _trackingNo;\n            \n        } \n        \n        \n        function sendOrderByDistributor(address _produceraddr,address _distaddr,uint _trackingNo,uint _quantity) public returns(uint[] memory)  {\n            emit Message(\"Order has been placed by distributor\"); \n            \n            Product memory p;\n           // tracking[_trackingNo]= ;\n            tracking[_trackingNo].prodname = p.prodname;\n            tracking[_trackingNo].trackingNo = _trackingNo;\n            tracking[_trackingNo].prodID = p.prodID;\n           tracking[_trackingNo].distaddr = _distaddr;\n           tracking[_trackingNo].produceraddr = _produceraddr;\n           tracking[_trackingNo].quantity = _quantity;\n            \n          emit pop(tracking[_trackingNo].trackingNo);\n        \n            \n            \n         acceptOrderByProducer(_produceraddr,_trackingNo); //producer accepts order and then sends the order\n            \n        }\n        \n       \n        \n        //structure object\n        TrackingOrder ord;        \n        //acceptOrder is supposed to be called by producer\n        function acceptOrderByProducer(address _produceraddr,uint _trackingNo) public returns (uint){\n            require(msg.sender == _produceraddr);\n            Product storage prod = product[_produceraddr];\n            TrackingOrder storage t = tracking[_trackingNo];\n            emit pop(t.trackingNo);\n            if((t.trackingNo == _trackingNo) && (prod.stock >= t.quantity))\n            {\n                prod.stock = prod.stock - t.quantity;\n                \n                emit Info(\"product sent: \",trackingorder[_trackingNo].trackingNo);\n                emit Info(\"Stock remained: \",prod.stock);\n                ord.flag = true;\n                uint amount = (t.quantity * prod.pricePerUnit);\n                emit Info(\"Auto amount: \",amount);\n                return amount;\n            }\n            \n            \n            else\n            {\n                emit Message(\"Insufficient quantity or wrong product\");\n            }\n            \n        }\n        \n         function randomtemperature(uint no, uint hrs) public returns (uint[] memory) {\n            for(uint i = 0 ; i<hrs ; i++)\n            {\n                temperature.push((uint256(keccak256(abi.encodePacked(no)))%100));\n                temperature[i] = (temperature[i]%10);\n                temperature[i] =  temperature[i]*3;\n                no++;\n                emit pop(temperature[i]);\n                \n            }\n            return temperature;\n            }\n            \n         function randomaccelerometer(uint no, uint hrs) public returns (uint[] memory)\n         {\n              for(uint i = 0 ; i<hrs ; i++)\n            {\n                accelerometer.push((uint256(keccak256(abi.encodePacked(no)))%10));\n                //accelerometer[i] =  accelerometer[i]/10;\n                no++;\n                emit pop(accelerometer[i]);\n            }\n            return accelerometer;\n         }\n    \n        \n         function randomluminosity(uint no, uint hrs) public returns (uint[] memory) {\n            for(uint i = 0 ; i<hrs ; i++)\n            {\n                luminosity.push((uint256(keccak256(abi.encodePacked(no)))%1000));\n                no++;\n                emit pop(luminosity[i]);\n                \n            }\n            return luminosity;\n            }\n            \n        function acceptOrderByDistributor(uint _trackingNo, address _distaddr, address _produceraddr, uint _amount) public {\n            TrackingOrder storage t = trackingorder[_trackingNo];\n            require(ord.flag == true);\n            \n            if(t.trackingNo == _trackingNo){\n                emit Message(\"Product received\");\n                _amount = checkprice(_amount);\n                makePayment(_distaddr,_produceraddr, _amount);\n                emit Message(\"Payment sent by distributor\");\n            }\n        }\n            \n        function checkprice (uint _amount)  public returns(uint){\n            uint amt=_amount;\n          for(uint i=0;i<temperature.length; i++)\n            {\n                    if (temperature[i]>20)\n                    {\n                        _amount= _amount - ((_amount*10)/100);\n                    }\n                    \n                    else\n                    {\n                        _amount =_amount;\n                    }\n              for(uint j=0;j<luminosity.length; j++)\n                {\n                    if (luminosity[i]>80)\n                    {\n                    _amount= _amount - ((_amount*10)/100);\n                    }\n                \n                    else\n                    {\n                    _amount =_amount;\n                    }\n                  for(uint k=0;k<accelerometer.length; k++)\n                    {\n                      if (accelerometer[i]<1)\n                      {\n                       _amount= _amount - ((_amount*10)/100);\n                      }\n                      else\n                      {\n                      _amount = _amount;\n                      }\n                    }\n                }\n            }\n            \n            \n            \n             emit Info(\"The Final Amount is: \",_amount);\n             \n             if(_amount == amt)\n             {\n                 emit Message(\"Custom's Verified\");\n             }\n             return _amount;\n        }\n        \n        \n        \n        \n}\n\n\n\n\n\n    \n    \n    \n    \n    //0xCA35b7d915458EF540aDe6068dFe2F44E8fa733c   -dist\n    //0x583031D1113aD414F02576BD6afaBfb302140225   -prod\n",
  "sourcePath": "/home/kedar/Desktop/Transportation of sensitive goods/1_TransportationOfSensitiveGoods/contracts/Transport.sol",
  "compiler": {
    "name": "solc",
    "version": "0.5.8+commit.23d335f2.Emscripten.clang"
  },
  "schemaVersion": "3.0.11",
  "updatedAt": "2019-07-24T19:32:50.727Z",
  "devdoc": {
    "methods": {}
  },
  "userdoc": {
    "methods": {}
  }
}